:100000000C94100B0C949C130C9475130C944E13BD
:100010000C9427130C94380B0C94380B0C9400138D
:100020000C94380B0C94380B0C94DE140C94820F47
:100030000C9469140C94380B0C94380B0C94380BFA
:100040000C94380B0C94380B0C94380B0C94380B24
:100050000C94380B0C94380B0C94380B0C94B6128F
:100060000C94380B0C94380B0C94380B0C94380B04
:100070000C94380B0C94380B0C94380B0C94380BF4
:100080000C94380B0C94380B0C94380B0C94380BE4
:100090000C94380B0C94380B0C94380B0C94380BD4
:1000A0000C94380B0C94380B0C94380B111F141F44
:1000B000141F141F141F0B1F141F171F141F8E163D
:1000C000911698169D16A416B616C6169116911678
:1000D0002D192819331953190E1969192D192D19AC
:1000E000080B0002020201000904000001020200E4
:1000F0000005240010010524010101042402060565
:1001000024060001070581031000400904010002D4
:100110000A000000070502024000000705830240B4
:1001200000000403090441726475696E6F204C4C31
:10013000430041726475696E6F204C656F6E617229
:10014000646F00120100020000004041233680006D
:10015000010102030112010002EF020140412336B6
:100160008000010102030100000000250028002B8F
:10017000002E00310000000000240027002A002D7E
:100180000030000404040404030405020202020413
:100190000302020202060606060606040402020222
:1001A0000404040802011040804010204080408078
:1001B00008020401804020100201108010204040FD
:1001C0002009232020205B485D656C70202D204491
:1001D0006973706C617920416E797768657265200A
:1001E0002020202020205B525D6566726573686563
:1001F00073204D617020202023000923204C4544AA
:100200003A205B5748495445202D20504154485DC1
:10021000205B505552504C45202D20504F52544198
:100220004C5D205B4F52414E4745202D204B455998
:100230005D2023005D207C205B53657269616C3A10
:10024000436F6E6E65637465645D207C2020565438
:10025000313030207C005D207C205B005D207C20E4
:100260005B4F726967696E3A20005D207C205B4CB1
:10027000617965723A20007C5B4C3356334C3A20EE
:10028000000000000000000000000000000000006E
:10029000000000000000000000000000000000005E
:1002A000000000000000000000000000000000034B
:1002B0000000000000000001000000000000000736
:1002C000000000000000000000000000000000002E
:1002D000000000000000000000000000000003001B
:1002E0000000000000000100000000000000010705
:1002F00000000000000000000000000000000000FE
:1003000000000000000000000000000000000000ED
:1003100000000000030100000000000000010700D1
:1003200000000000000000000000000000000000CD
:1003300000000000000000000000000000000000BD
:1003400000030100000000000000010000000000A8
:100350000000010107000000000000000000000094
:10036000000000000000000000000000000000008D
:10037000000000000000000000000000000000007D
:100380000007000000000000000100000000000065
:10039000000100000000000000010000000000005B
:1003A000000100000000000000010000000000004B
:1003B0000001000000000000000300000000000039
:1003C000000000000000000000000000000000002D
:1003D000000000000000000000000000000000001D
:1003E0000000000000000000000000010300000009
:1003F00000000001000000000007010101000000F2
:1004000000000003010100000000000100010000E5
:1004100000000001010100000000000000010000D8
:1004200000000000010100000000000007000000C3
:1004300000000000000000000000000000000000BC
:1004400000000007010100000000000000010000A2
:100450000000000000010100010000000000010098
:100460000100000000000101010000000000000088
:100470000100000000000000010000000000000377
:10048000010000000000000000000000000000006B
:10049000000000000000000000000000000000005C
:1004A000000000000000000000000000000000004C
:1004B0000000000000000000000000000003010731
:1004C000010000000000000000000000000000002B
:1004D000000000000000000000000000000000001C
:1004E0000000000000000000000000000101030007
:1004F00000000000010001000000000001070100F1
:1005000000000000000000000000000000000300E8
:1005100000000000000001000000000000010101D7
:1005200001000000000001000000000000000700C2
:1005300000000000000000000000000000000000BB
:10054000000000000100010001000000010107019E
:100550000100000001000100000000000301010093
:10056000000000000000000000000000000000008B
:10057000000000000000000000000000000000007B
:100580000000010003000000000101010100000063
:100590000000000100010000000000010701000050
:1005A000000000000000000000000000000000004B
:1005B000000000000000000000000000000000003B
:1005C0000000000107000000000000000101000021
:1005D0000000000101000000000000000101000017
:1005E0000000000101000000000000000101000007
:1005F00000000000030000000000000000000000F8
:1006000000000000000000000000000000000000EA
:1006100000000000000000000000000000000300D7
:1006200000000000000001000000000000010101C6
:1006300000000000070001000000000101010101AD
:1006400001000000000000000000000000000000A9
:100650000000000000000100000000000000070092
:100660000000010101010101000000010001000181
:10067000010000010001000001000001010101036F
:10068000000000000000000000000000000000006A
:10069000000000000000000000000000000000005A
:1006A0000000000000000003000000000000000542
:1006B0000000000000000201000000000000000730
:1006C000000000000000000000000000000000002A
:1006D000000000000000000000000000000000001A
:1006E00000000000000000070000000003050101F9
:1006F00000000000000002000000000000000000F8
:1007000000000000000000000000000000000000E9
:1007100000000000000000000000000000000000D9
:1007200000000000000000000000050107000000BC
:1007300000000300010000000000000001020000B2
:1007400000000000000000000000030000000000A6
:100750000000050000000000000001020000000091
:100760000000050000000000000201000000000081
:100770000000070000000000000000000000000072
:10078000000000010101000000000701000100005D
:10079000000000010502000000000000030000004E
:1007A0000000000000000000000000000000000049
:1007B0000000000000000000000000000000000039
:1007C000000000000100030000000201010005001C
:1007D000000000000101010000000000070000000F
:1007E0000000000000000000000000000000000009
:1007F00000000000000000000000000000000000F9
:1008000000000000000107000000000000010000DF
:1008100000000000000200000000000205010105C8
:1008200003000000000000000000000000000000C5
:1008300000000000000000000000000000000000B8
:1008400000000000000000000000000000000200A6
:10085000000000000000010000000002010501018D
:100860000700000000000100000000000005010179
:10087000020000000001000000000000000105036C
:100880000000000000000000000000000000000068
:100890000000000000000000000000000003000055
:1008A0000000000000050000000000000001010140
:1008B000000000000001000100000000000201072C
:1008C0000000000000000000000000000000000028
:1008D0000000000000000001000000010207010507
:1008E0000000000001000001000000000000000303
:1008F00000000000000000000000000000000000F8
:1009000000000000000000000000000000000000E7
:1009100000000000000000000000000000000300D4
:1009200000000000000001000000000000020107BC
:1009300001000000000001000500000000000101AE
:1009400001000000000000000000000000000000A6
:10095000000000000000020000000000010107018B
:10096000010000000100000001000000010103017E
:100970000100000000000000000000000000000076
:100980000000000000000205010000000301050056
:100990000000000000000200000000000000050050
:1009A000000000000000020000000000000007003E
:1009B0000000000000000000000000000000000037
:1009C0000000010101000000000001000701010119
:1009D000000001000000000200000100050101010B
:1009E0000000010103000000000000000000000002
:1009F00000000000000000000000000000000000F7
:100A000000000000000000000000000000000000E6
:100A100000000000000000000000000000000000D6
:100A200000000305070000000000010001010100B3
:100A300000000100000002000000010101010100AE
:100A4000000002000000000000000500000000009F
:100A50000000020200000000000001000000000091
:100A6000000007050101020100000500000000016F
:100A70000000010000000005000001020101050363
:100A80000000000000000000000000000000000066
:100A90000000000000000000000000000000000056
:100AA0000100000000000003010000000000000041
:100AB000030000000000000000000000000101072A
:100AC000030000000000000000010300000000001F
:100AD000000100000300000000030000010001000D
:100AE00000000103010001040000000001000200F9
:100AF00004000000000305000100000000000101E7
:100B000007000000030101000001030000000300D2
:100B100000010000040300000003000000050000C5
:100B200000000004010100000000000000010000BE
:100B300000000000000700000000000000000000AE
:100B40000000010104000000000004000001040096
:100B50000003000100070000000401000001000084
:100B60000001000000000000000000000000000084
:100B7000000000000000000000030103000000006E
:100B80000002000001000000000100000100000060
:100B90000007010003010300000100030000000042
:100BA0000001000100000000000501050100000037
:100BB0000001000100000000000400040200000029
:100BC0000000000000000000000000000001000222
:100BD00001000001040004000500000700010101FC
:100BE00002000005010100000000000300000304F2
:100BF00000000000000300000400000000010101EB
:100C000001000000000000000000000101010000E0
:100C100000000003000300030103000100000000C6
:100C200001010000010101000101050701000400AC
:100C300001000100000400010100020101010001A6
:100C4000030000000000000000010000000001009F
:100C5000000100040104000400070101000100017B
:100C60000001000000010101000000000000000080
:100C70000000000000000000000000000000000371
:100C80000400000000000000000000000000000060
:100C90000000000000000000000000000000000054
:100CA000000000000000030001000000000001013E
:100CB0000100000000000101010000000000010728
:100CC0000100000000000000000000000000000023
:100CD000000000000000000200000000030001010D
:100CE00000000000050107010000000001010000F4
:100CF00000000000000000000000000000000000F4
:100D000000000000030103010100000000010000D9
:100D100000000000010001030000000007050101C0
:100D200000000000010001010003000101010000BA
:100D300000010001010200000003000000000000AB
:100D40000000000004000401010000000200000196
:100D50000100000001050107010000000001000181
:100D6000010000000501010000040300030002006F
:100D70000100000000010003010401010101010163
:100D80000100000000000000000000000000000062
:100D9000000101000000000000040100000000004C
:100DA000000000000002000000010405070100002F
:100DB0000001000000010504000101030000000023
:100DC000000000050101050300010101000101000F
:100DD0000001010100020100000301010000000008
:100DE00000010000000000000001010200000000FE
:100DF00000010101000000000001010700000000E7
:100E000000010101010001070001010101000100D1
:100E100000010101010001000001010101010100C7
:100E200000010100010101000301010001010100B5
:100E300001010101010101000103010101010101A1
:100E400001000000000000000000000000000000A1
:100E5000000000000000000000000000020001018E
:100E6000010101010101010007010101010101006E
:100E7000010101000101000000070100010105035B
:100E8000010000000000010100000000010101015B
:100E90000100000003000001030000000501030041
:100EA0000000000000010002010201010501000034
:100EB0000100000001000001010101010101010721
:100EC0000101010000010101030101000501000011
:100ED00000000000070001010402010502000401F6
:100EE00001000000050100000002010101000000F6
:100EF00000000000000000000000000000000000F2
:100F000000010101010101010701010101010102CB
:100F100001010101010101010101010101010101C1
:100F200001010100010101010105000400000000B0
:100F300001010300010101010101010001010101A1
:100F40000101000000030501030100000001010090
:100F5000010103000000000002010001010503007F
:100F60000003000201010000000001000100020076
:100F7000000107000500010000030100030101005A
:100F80000000030502040001040300000501000144
:100F90000501040002000100010000010001070139
:100FA000020401010001010001010103000101012E
:100FB0000100000000010100010401010400010121
:100FC0000105070101010100030400000500020002
:100FD0000100000201000001030001000000030005
:100FE00001010101000101000001000405050001EB
:100FF00001010200010001010101000201010001E3
:1010000001020100010101010400010101000100D0
:1010100000020001010001000401010501000705B3
:1010200002000101000000050003000503010101A9
:1010300001010100000000000001010101010101A6
:101040000301010001000100010101000100010094
:10105000010101000100010001010100020501027E
:101060000100000005000000010401050701010165
:101070000100000001000000000101000100010367
:10108000040000000000000000000000000000005C
:10109000000000000000000002000000000000004E
:1010A000010000000308010101030100010001002B
:1010B0000101010001010500010301000101000718
:1010C0000800000000000000000000000000000018
:1010D0000000000000000000000000000000000010
:1010E00000000000070000000004030001010101EE
:1010F00001000000010000000104010801050201D7
:1011000001010101010101010101010101080101C8
:1011100001010101000300010101010101000101C0
:1011200001010101010101010101070101010101A9
:10113000010101010101010101010101010101019F
:10114000010101010101010101010000000008008D
:101150000101010102070101010008000000000077
:101160000003050000000000000000000000000077
:10117000000000000000000000000000000000006F
:101180000001010108050100030200010000010146
:10119000050100050102000201000101000101003A
:1011A000000701010400040001000000000000012C
:1011B0000300000000000001010000000000000327
:1011C0000100000003000001070000000100010011
:1011D0000100000101000100010000010002010105
:1011E00001000101010000080001010000030505E4
:1011F00004010101010002000003010101000104DA
:1012000001010101000401010101010100030101CB
:1012100001010101000001010101010001010001C2
:1012200001000001010100010101010101070001AC
:101230000101010001010800010401000101080889
:101240000108080800000008000000080807080856
:101250000000000000080000000808080808080056
:101260000000000800080000000008080008080846
:10127000080808000008000808080800080800031B
:101280000809092020204120202020204220202061
:1012900020204320202020204420202020204520E2
:1012A00020202020462020202020582020202020E0
:1012B0005A00090909092D3D5B4D61696E204D6594
:1012C0006E755D3D2D0D0A095B4D5D61702056699F
:1012D000657709095B485D656C70204D656E750921
:1012E000094261635B4B5D0D0A0D0A00496E766130
:1012F0006C69642063686F69636521004F7074696D
:101300006F6E733A205B4D484B503F5D00457363F1
:1013100061706520697320696D706F737369626CA9
:101320006500070605040100080A0B0C0D090909F0
:10133000546865205465737365726861636B2069D6
:1013400073206E6F206F7264696E6172792033440E
:101350002073706163652E0D0A2055736520796FC7
:10136000757220626164676520746F206E617669B2
:101370006761746520746865207477697374732C71
:10138000207475726E732C20696E7320616E6420F8
:101390006F757473206F6620382063756265732ED5
:1013A000200D0A0D0A0020202020202B5F5F5F5FA8
:1013B0005F5F5F5F5F5F5F2B0D0A202020202F3A69
:1013C0005C2020202020202020202C3A5C0D0A20A8
:1013D00020202F203A205C202020202020202C209C
:1013E0003A205C0D0A20202F20203A20205C20206B
:1013F0002020202C20203A20205C0D0A202F2020A5
:10140000203A2020202B2D2D2D2D2D2D2D2D2D2D35
:101410002D2B2020202020205F2020202020202075
:1014200020202020202020202020202020202020BC
:101430002020205F2020205F20202020202020202E
:10144000202020205F0D0A2B2E2E2E2E3A2E2E2FFE
:101450003A2E2E2E2B2020203A20202F7C202020B8
:1014600020207C207C5F205F5F5F20205F5F5F200B
:101470005F5F5F20205F5F5F205F205F5F7C207C7D
:10148000207C207C205F5F205F20205F5F5F7C20CE
:101490007C205F5F0D0A7C5C2020202B2E2F2E3AB3
:1014A0002E2E2E602E2E2E2B202F207C2020202032
:1014B000207C205F5F2F205F205C2F205F5F2F202C
:1014C0005F5F7C2F205F205C20275F5F7C207C5F3C
:1014D0007C207C2F205F60207C2F205F5F7C207C25
:1014E0002F202F0D0A7C205C202C602F20203A20FA
:1014F00020203A60202C602F20207C2020202020DB
:101500007C207C7C20205F5F2F5C5F5F205C5F5FC6
:10151000205C20205F5F2F207C20207C20205F200B
:10152000207C20285F7C207C20285F5F7C2020207E
:101530003C0D0A7C20205C202F602E203A202020A9
:101540003A2060202F6020207C2020202020205C5A
:101550005F5F5C5F5F5F7C7C5F5F5F2F5F5F5F2FC4
:101560005C5F5F5F7C5F7C20207C5F7C207C5F7C9D
:101570005C5F5F2C5F7C5C5F5F5F7C5F7C5C5F5C63
:101580000D0A7C202C202B2D2D2D2D2D2D2D2D2D9C
:101590002D2D2B202060207C0D0A7C2C20207C20EF
:1015A0002020602B2E2E2E3A2C2E7C2E2E2E602BC1
:1015B0000D0A2B2E2E2E7C2E2E2E2C272E2E2E2B51
:1015C00020207C2020202F0D0A205C20207C202041
:1015D0002C20202020206020207C20202F0D0A207D
:1015E000205C207C202C2020202020202060207CBB
:1015F000202F0D0A2020205C7C2C20202020202061
:10160000202020607C2F0D0A202020202B5F5F5F90
:101610005F5F5F5F5F5F5F5F2B0D0A0D0A009421C4
:1016200011241FBECFEFDAE0DEBFCDBF11E0A0E096
:10163000B1E0E8E1F9E402C005900D92A63DB107E2
:10164000D9F722E0A6EDB1E001C01D92AD3AB20794
:10165000E1F71BE0C0E1DBE004C02197FE010E943E
:10166000F321CF30D107C9F70E94D31C0C948A24F0
:101670000C94000080E991E00895279A08954F9214
:101680005F926F927F928F92AF92BF92CF92DF92D2
:10169000EF92FF921F93CF93DF933C01EB010E94E7
:1016A000BF11F30127853089621B730B6A30710506
:1016B000B0F3F894E881F98175B1706885B18F77DE
:1016C00085B9CA849F812C2D291B922F2F83BF841B
:1016D0004A805B80FD84EC84DE84F394E394D394AD
:1016E0003E814885A9848B841181D20120E0522F4C
:1016F000622F6181112788946111690F08F46FEFDF
:1017000091958894F0FC160F17958894F1FC160FAC
:1017100017958894F2FC160F17958894F3FC160F12
:1017200017958894F4FC160F17958894F5FC160FFE
:1017300017958894F6FC160F17958894F7FC160FEA
:1017400017958894262FF110212F9C0D122F002C15
:1017500075B900C017FF85B960812227889400C041
:1017600000C0002C85B96111630F00C0002C75B951
:1017700000C016FF85B908F46FEF3195889400C05A
:1017800000C0002C85B9E0FC260F00C0002C75B904
:1017900000C015FF85B927958894E1FC260F00C08D
:1017A00000C0002C85B92795889400C0002C75B91D
:1017B00000C014FF85B9E2FC260F2795889400C06D
:1017C00000C0002C85B9E3FC260F00C0002C75B9C1
:1017D00000C013FF85B927958894E4FC260F00C04C
:1017E00000C0002C85B92795889400C0002C75B9DD
:1017F00000C012FF85B9E5FC260F2795889400C02C
:1018000000C0002C85B9E6FC260F00C0002C75B97D
:1018100000C011FF85B927958894E7FC260F00C00A
:1018200000C0002C85B92795889400C0002C75B99C
:1018300000C010FF85B9162FE110122F3A0D00C01D
:1018400000C0002C85B900C000C0002C75B900C0D4
:1018500017FF85B962812227889400C000C0002C40
:1018600085B96111640F00C0002C75B900C016FF66
:1018700085B908F46FEFEB0DF11D00C000C0002C1E
:1018800085B9D0FC260F00C0002C75B900C015FF2B
:1018900085B927958894D1FC260F00C000C0002C84
:1018A00085B92795889400C0002C75B900C014FF35
:1018B00085B9D2FC260F2795889400C000C0002C63
:1018C00085B9D3FC260F00C0002C75B900C013FFEA
:1018D00085B927958894D4FC260F00C000C0002C41
:1018E00085B92795889400C0002C75B900C012FFF7
:1018F00085B9D5FC260F2795889400C000C0002C20
:1019000085B9D6FC260F00C0002C75B900C011FFA8
:1019100085B927958894D7FC260F00C000C0002CFD
:1019200085B92795889400C0002C75B900C010FFB8
:1019300085B9162FD110122F419500C000C0002C80
:1019400085B9480D00C000C075B900C017FF85B942
:1019500061812227889400C000C0002C85B96111E4
:10196000690F00C0002C75B900C016FF85B908F4D6
:101970006FEF9195889400C000C0002C85B9F0FCF1
:10198000260F00C0002C75B900C015FF85B927953A
:101990008894F1FC260F00C000C0002C85B9279563
:1019A000889400C0002C75B900C014FF85B9F2FC02
:1019B000260F2795889400C000C0002C85B9F3FC41
:1019C000260F00C0002C75B900C013FF85B92795FC
:1019D0008894F4FC260F00C000C0002C85B9279520
:1019E000889400C0002C75B900C012FF85B9F5FCC1
:1019F000260F2795889400C000C0002C85B9F6FCFE
:101A0000260F00C0002C75B900C011FF85B92795BD
:101A10008894F7FC260F00C000C0002C85B92795DC
:101A2000889400C0002C75B900C010FF85B9162F2E
:101A3000F110122F9C0D00C000C0002C85B9119729
:101A400009F086CE20EE31E0D2010E94F921DC01BE
:101A5000CB01F4E0B695A79597958795FA95D1F7C0
:101A600020E030E0A9016AE9469E412D569E400DD6
:101A7000511D1124840F951FA11DB11D893E43E006
:101A80009407A105B10588F1885E9340A109B109C9
:101A900042E0B695A795979587954A95D1F747E087
:101AA000849F212D949F200D311D11246091D6011A
:101AB00070E0860F971F820F931F4091D7015091BE
:101AC000D8016091D9017091DA01292F3327420F93
:101AD000531F611D711D4093D7015093D80160932E
:101AE000D9017093DA018093D60178940E94BF11D6
:101AF000F301708B6787DF91CF911F91FF90EF907B
:101B0000DF90CF90BF90AF908F907F906F905F905D
:101B10004F9008950F931F93CF93DF93CDB7DEB708
:101B200062970FB6F894DEBF0FBECDBF8C01F901EE
:101B3000DC011C968C917A8369835C834B835E8382
:101B40004D8390819D8791819E8792819F8781306F
:101B500029F4CE0101960E948F1406C01C861B86B4
:101B60001A86198618861F82188A1A8A198AD80135
:101B7000ED91FC910484F585E02DBE016F5F7F4FF0
:101B8000C801099562960FB6F894DEBF0FBECDBFAF
:101B9000DF91CF911F910F9108950F931F93CF93D2
:101BA000DF93CDB7DEB762970FB6F894DEBF0FBEF6
:101BB000CDBF8C01F901DC011C968C917A8369837D
:101BC0005C834B835E834D8390819D8791819E874B
:101BD00092819F87813029F4CE0101960E948F1453
:101BE00006C01C861B861A86198618861F8283E00B
:101BF000888B1A8A198AD801ED91FC910484F585A5
:101C0000E02DBE016F5F7F4FC801099562960FB648
:101C1000F894DEBF0FBECDBFDF91CF911F910F9122
:101C200008954091E4015091E5012091E201309145
:101C3000E30142175307B4F49091E8009570E1F383
:101C40009091E80092FD19C08093F1008091E40129
:101C50009091E50101968F739927892B19F48EEFE6
:101C60008093E8008091E4019091E50101969093C2
:101C7000E5018093E40181E0089580E00895CF922A
:101C8000DF92EF92FF920F931F93CF93DF931F92F8
:101C9000CDB7DEB7182F062FE42E862F880F8E5F64
:101CA00099830E94110E83E00E94110EF12EC12E25
:101CB0009981D92E8C2D8F19801798F4F601E7FEA3
:101CC00002C0849101C080810E94110E182F80E013
:101CD0000E94110E8123FFEFCF1ADF0A8111EACF94
:101CE00001C081E00F90DF91CF911F910F91FF9084
:101CF000EF90DF90CF900895DF92EF92FF920F93D5
:101D00001F93CF93DF93D82E8A017B01E40EF51E3B
:101D1000EB01CE15DF0571F0D7FE03C0FE01849103
:101D200001C088810E94110E21968111F2CF8FEFA0
:101D30009FEF01C0C801DF91CF911F910F91FF90DC
:101D4000EF90DF900895615030F02091F100FC0198
:101D500020830196F8CF289884E680932402089582
:101D6000CF92DF92EF92FF920F931F93CF93DF9367
:101D70006C017A018B01C0E0D0E0CE15DF0589F05F
:101D8000D8016D918D01D601ED91FC910190F0810A
:101D9000E02DC6010995892B11F47E0102C0219620
:101DA000ECCFC701DF91CF911F910F91FF90EF9082
:101DB000DF90CF900895CF93DF931F92CDB7DEB71A
:101DC0006983DC01ED91FC910280F381E02D41E01B
:101DD00050E0BE016F5F7F4F09950F90DF91CF916B
:101DE0000895FC018485958597FD0BC09FB7F894F5
:101DF00082E08093E9008091F2009FBF90E001961D
:101E000008959FB7F89482E08093E9008091F200F2
:101E10009FBF90E0089508950F931F93CF93DF9392
:101E20001F92CDB7DEB782E0898342E450E060EED6
:101E300070E080E80E947C0E0E94BF1CDC011296BC
:101E40000D911C9113970115110569F0D801ED91C1
:101E5000FC910280F381E02DBE016F5F7F4FC801CE
:101E6000099597FF07C089810F90DF91CF911F914E
:101E70000F910895F80100851185E5CF0C94751C2C
:101E8000CF93DF931F92CDB7DEB7FC018485958594
:101E900097FD05C02FEF3FEF358724870BC0CE019C
:101EA00001960E94801C019719F4898190E002C07C
:101EB0008FEF9FEF0F90DF91CF9108950F931F93B6
:101EC000CF93DF931F92CDB7DEB78C01FC018485E1
:101ED000958597FF0EC0CE0101960E94801C019748
:101EE00019F4298130E002C02FEF3FEFF801358768
:101EF0002487F801848595850F90DF91CF911F91FC
:101F00000F9108951F920F920FB60F921124CF9246
:101F1000DF92EF92FF920F931F932F933F934F9374
:101F20005F936F937F938F939F93AF93BF93EF9341
:101F3000FF93CF93DF93CDB7DEB76C97DEBFCDBFF6
:101F40001092E9008091E80083FFFAC168E0CE01B9
:101F500045960E94A30E82EF8093E8008D8987FF4B
:101F600005C09091E80090FFFCCF03C09EEF9093D6
:101F7000E800982F907609F0C6C09E892F89188DA9
:101F800091110CC0803829F48091E9018093F1000F
:101F900002C01092F1001092F10047C1422F50E0B0
:101FA000512B913051F4811140C14130510509F05C
:101FB0003CC18091E9018D7F0BC0933061F48111A8
:101FC00034C14130510509F030C18091E90182608E
:101FD0008093E9012AC1953041F48091E80080FFA7
:101FE000FCCF20682093E30020C1963009F05FC049
:101FF000EB8CFC8C1092E9001092E5011092E40148
:10200000123091F51092E3011092E2010E940C0F40
:1020100099E0BE016F5F7F4FDB01E92F1D92EA95CA
:10202000E9F799831A8391E09E8390EA98879AEF63
:1020300099872091E4013091E501275F3F4F3C8370
:102040002B838D831092E9001092E5011092E40138
:10205000F092E301E092E20149E050E080E00E946A
:102060007C0E0E940C0FE1C0F092E301E092E201CD
:102070000E94BF1CDC011296ED90FC901397E114B6
:10208000F10409F4C0C0D701ED91FC910480F58101
:10209000E02DBE016B5E7F4FC7010995009719F0D7
:1020A0000CF0C3C0C6C0F701E084F184E8CF9730DC
:1020B00009F4BFC0983021F481E08093F100B5C0ED
:1020C000993009F0B2C0837009F0B3C0EEE1F1E0DD
:1020D00081E021E036E39081992361F08093E9006B
:1020E0002093EB0091919093EC003093ED008F5F83
:1020F000873089F78EE78093EA001092EA008F8993
:102100008093250292C08B8D9C8D1092E9001092D5
:10211000E5011092E4019093E3018093E201898D3F
:10212000811156C08E899D89913A59F4813209F006
:1021300080C047E050E061E171E080E00E947C0EE9
:1021400074C0913209F075C0833289F4888D90E0B3
:10215000982F88272F89822BA0E0B0E080930A0176
:1021600090930B01A0930C01B0930D015EC08032DF
:1021700069F48091E80082FFFCCF67E081E191E0A3
:102180000E94A30E8BEF8093E80006C0823209F014
:102190004CC08F89809318018091E701882319F042
:1021A000EEEFFAE002C0E0E0F8E0809111019091DA
:1021B0001201A0911301B0911401803B9440A1053C
:1021C000B10509F088C08091180180FFA0C083C0CC
:1021D0000E94BF1CDC0112960D911C9113970115F2
:1021E000110539F1D801ED91FC910190F081E02DBC
:1021F000BE016B5E7F4FC8010995811116C0F801C1
:1022000000851185ECCF1130C1F0133091F48F8926
:10221000882309F455C08230E9F440E860E182E3A4
:1022200091E00E943F0E882321F08EEF8093E8001A
:1022300087C081E28093EB0083C08B8D9C8D0897D3
:1022400011F41093E1018091E101811136C063E442
:1022500071E038C0813029F440E86BE086E291E01B
:10226000E0CF833031F70E94BF1CDC011296ED9065
:10227000FC9013978E010F5F1F4F6801E114F1046A
:1022800079F0D701ED91FC910680F781E02DB8013E
:10229000C7010995080F111DF701E084F184EECF05
:1022A000D8011C92F60101900020E9F73197BF0197
:1022B0006C197D0940E0C601B4CF65E571E002C04C
:1022C00062E271E06115710509F4B3CFFB0144913D
:1022D00050E080E833CF0FB6F894A8958091600065
:1022E000886180936000109260000FBEA895EE3F59
:1022F0002AE0F20739F08091FE0A9091FF0A91835B
:10230000808393CF1092FF0A1092FE0A8ECFEE3F89
:102310008AE0F80731F0808191819093FF0A8093E1
:10232000FE0A87E797E7918380839BE088E10FB6F9
:10233000F894A895809360000FBE9093600075CFCD
:102340006C960FB6F894DEBF0FBECDBFDF91CF9174
:10235000FF91EF91BF91AF919F918F917F916F917D
:102360005F914F913F912F911F910F91FF90EF90AF
:10237000DF90CF900F900FBE0F901F9018953FB732
:10238000F8948091DD019091DE01A091DF01B09180
:10239000E00126B5A89B05C02F3F19F00196A11DAD
:1023A000B11D3FBFBA2FA92F982F8827820F911DEB
:1023B000A11DB11DBC01CD0142E0660F771F881F32
:1023C000991F4A95D1F708958F929F92AF92BF922D
:1023D000CF92DF92EF92FF926B017C010E94BF11BE
:1023E0004B015C01C114D104E104F104F1F00E943D
:1023F000BF11DC01CB0188199909AA09BB09883EE4
:102400009340A105B10570F321E0C21AD108E1089B
:10241000F10888EE880E83E0981EA11CB11CC1143F
:10242000D104E104F10419F7DDCFFF90EF90DF90C4
:10243000CF90BF90AF909F908F9008958F929F9272
:10244000AF92BF92CF92DF92EF92FF920F931F93C2
:10245000CF93DF935C016B018A018091180188237F
:1024600009F45EC080912502882309F459C0809147
:10247000E80180FF05C08091E00082608093E00069
:10248000E8018AEFF82E93E0E92E2FE3822E3AE35B
:10249000932E209709F43DC08FB7F894E092E9009D
:1024A0009091E80095FF06C09091F200282D291B1D
:1024B000922F01C090E08FBF91110AC0FA94FF20C3
:1024C00079F161E070E080E090E00E94E411E1CFFA
:1024D000292F30E0C217D3070CF49C2F8FB7F89444
:1024E000E092E9002091E80025FF11C0292F30E09B
:1024F000C21BD30BF601915020F041914093F100A3
:10250000FACFC20ED31E9091E80095FF13C08FBF83
:10251000C0CF5D9884E68093E6011016110644F062
:1025200081E090E0F5019383828380E090E005C034
:10253000C80103C09092E800EACFDF91CF911F91CC
:102540000F91FF90EF90DF90CF90BF90AF909F9052
:102550008F9008952FB7F8946091D7017091D801AA
:102560008091D9019091DA012FBF08951F920F92A7
:102570000FB60F9211242F933F938F939F93AF9396
:10258000BF938091D7019091D801A091D901B091CA
:10259000DA013091DC0123E0230F2D3720F401967E
:1025A000A11DB11D05C026E8230F0296A11DB11D76
:1025B0002093DC018093D7019093D801A093D90197
:1025C000B093DA018091DD019091DE01A091DF01ED
:1025D000B091E0010196A11DB11D8093DD019093A2
:1025E000DE01A093DF01B093E001BF91AF919F9115
:1025F0008F913F912F910F900FBE0F901F901895C4
:102600001F920F920FB60F9211242F933F934F9367
:102610005F936F937F938F939F93AF93BF93EF934A
:10262000FF93E0910801F09109010995FF91EF9165
:10263000BF91AF919F918F917F916F915F914F91DA
:102640003F912F910F900FBE0F901F9018951F92E2
:102650000F920FB60F9211242F933F934F935F93D6
:102660006F937F938F939F93AF93BF93EF93FF935A
:10267000E0910601F09107010995FF91EF91BF915B
:10268000AF919F918F917F916F915F914F913F910A
:102690002F910F900FBE0F901F9018951F920F92C1
:1026A0000FB60F9211242F933F934F935F936F9325
:1026B0007F938F939F93AF93BF93EF93FF93E0919B
:1026C0000401F09105010995FF91EF91BF91AF9140
:1026D0009F918F917F916F915F914F913F912F913A
:1026E0000F900FBE0F901F9018951F920F920FB66C
:1026F0000F9211242F933F934F935F936F937F9388
:102700008F939F93AF93BF93EF93FF93E091020159
:10271000F09103010995FF91EF91BF91AF919F91C6
:102720008F917F916F915F914F913F912F910F907A
:102730000FBE0F901F9018951F920F920FB60F9219
:1027400011242F933F934F935F936F937F938F93B6
:102750009F93AF93BF93EF93FF93E0910001F091AC
:1027600001010995FF91EF91BF91AF919F918F91D9
:102770007F916F915F914F913F912F910F900FBE7D
:102780000F901F901895DC01FB014C9111965C9104
:10279000119712967C91342F3F71330F330F832F93
:1027A000880F35E5282F239F020E20E0211D1124DC
:1027B000642F6074942F907247FD21C061110BC08B
:1027C000911104C0822F8095422F11C045E5420F20
:1027D00030E02BEA33C091110DC0382F4AEA349F04
:1027E000030E30E0311D11248BEA831B420F282F8A
:1027F00030E024C080E0422F4095322F0EC061119E
:1028000011C091110CC0382F2AEA329F030E30E01C
:10281000311D11244BEA431B3B5A20E00FC0322FDD
:1028200030950BC0911104C085E5820F3BEA03C0CF
:102830008AEA820F90E0321B282F40E05F3F11F1BF
:102840005523E9F0222321F0259F020E20E0211DCF
:10285000442321F0459F040E40E0411D332321F025
:10286000359F030E30E0311D11245095559F050E04
:1028700050E0511D1124250F450F350F03C03FEFC8
:102880004FEF2FEF7F3F09F420C050E0772321F076
:10289000779F512D09F05F5F5523A1F0222321F08E
:1028A000259F020E20E0211D442321F0459F040EA8
:1028B00040E0411D332321F0359F030E30E0311DF0
:1028C000112403C030E040E020E0208341833283C4
:1028D00008951F920F920FB60F9211248F93EF93CA
:1028E000FF93F894A89584B7877F84BFE0E6F0E073
:1028F00080818861808310827894E0918602F091D3
:10290000870281E08287FF91EF918F910F900FBE38
:102910000F901F9018950C9419240C941124EF9289
:10292000FF920F931F93CF93DF93EC019091DB0104
:102930009F5F292F27702093DB0190FF02C090E852
:1029400001C090E021FD9064247009F0906220E1C4
:10295000290FFE013C967E018FE0E80EF11C00E09D
:1029600011E06191662331F070E0C8010E94DF211F
:102970006F5F01C060E0DF0114976C93322F369FC8
:10298000030E30E0311D1124CF010797311103C030
:10299000EC01188203C03150EC013883662311F03A
:1029A00061506C93EE15FF05E1F6DF91CF911F9119
:1029B0000F91FF90EF9008950E94B5221F920F9201
:1029C0000FB60F9211242F933F934F935F936F9302
:1029D0007F938F939F93AF93BF93CF93EF93FF9387
:1029E000C091E1008091E100837F8093E100C3FF0B
:1029F0000FC01092E90081E08093EB001092EC0090
:102A000082E38093ED001092250288E08093F0002D
:102A1000C2FF18C00E94751C8091E601882339F01E
:102A20008091E60181508093E601882389F18091AD
:102A30002402882339F0809124028150809324025B
:102A4000882341F1C4FF10C08091E2008E7E816036
:102A50008093E2008091E1008F7E8093E10080917D
:102A6000E8018E7E806111C0C0FF16C08091E20037
:102A70008E7E80618093E2008091E1008E7E809363
:102A8000E1008091E8018E7E81608093E80104C0BE
:102A90005D9ACDCF289AD6CFFF91EF91CF91BF917C
:102AA000AF919F918F917F916F915F914F913F91E6
:102AB0002F910F900FBE0F901F90189580E090E01F
:102AC0000895FC01858596850895CF93DF9300D006
:102AD00000D000D0CDB7DEB7AB011C821D821E82B4
:102AE000DC01ED91FC910190F081E02D19821A82B8
:102AF0001B829E012F5F3F4FBE016C5F7F4F099588
:102B000026960FB6F894DEBF0FBECDBFDF91CF91F2
:102B10000895CF93DF93CBEED1E0688182E090E01F
:102B20000E948B14698183E090E00E948B146A817B
:102B300084E090E0DF91CF910C948B142F923F9220
:102B40004F925F926F927F928F929F92AF92BF92BD
:102B5000CF92DF92EF92FF920F931F93CF93DF9369
:102B6000CDB7DEB729970FB6F894DEBF0FBECDBF45
:102B70001091EA01133091F130F41123A1F01230D9
:102B800009F44BC239C2153009F46EC108F414C1FE
:102B9000163009F031C284E0282E312C812C912C82
:102BA00054018A9426C280E090E02FEFFC01E251AC
:102BB000FE4F10821182228303968C309105B1F76B
:102BC000109379020E94E01A1F5F1F3FC9F710930C
:102BD00079020E94E01A1150D1F741C1A091FA0187
:102BE000F090FB010F2D10E02091FC01822F90E06E
:102BF000B0E087309105C9F031E0320FFD0143E0CC
:102C0000EE0FFF1F4A95E1F7E30FF11D53E0EE0FC2
:102C1000FF1F5A95E1F7E00FF11FEF57FD4FE491C9
:102C20004E2F50E00097D1F002C040E050E06FEF2F
:102C3000620F9D01E3E0220F331FEA95E1F7260FB3
:102C4000311DF3E0220F331FFA95E1F7200F311FFA
:102C5000F901EF57FD4F249130E002C020E030E051
:102C600001151105D1F0FD0163E0EE0FFF1F6A951C
:102C7000E1F7E80FF91F73E0EE0FFF1F7A95E1F718
:102C80006FEF6F0DE60FF11DEF57FD4FE4916E2FC3
:102C900070E007301105C9F002C060E070E0F39405
:102CA000FD01A3E0EE0FFF1FAA95E1F7E80FF91F62
:102CB000B3E0EE0FFF1FBA95E1F7EF0DF11DEF57EF
:102CC000FD4FE4918E2F90E002C080E090E05A83A7
:102CD00049839C838B837E836D8338872F83CE01CA
:102CE00001964C010EEE11E08FEEC82E81E0D82E39
:102CF00090EFE92E91E0F92EBB24BA9420E8A22EA1
:102D000035EA732ED401ED91FD914D01E930F105C5
:102D100008F044C0E15AFF4F0C94F321F8011082EF
:102D200037C0D801BC92F601B082D701BC9234C042
:102D3000F801B082D6017C922DC0D801AC92F60188
:102D40001082D701AC9228C0412C512CF201E251E3
:102D5000FE4FA0821182A2820E94E01AB3E04B0EC5
:102D6000511CE9E04E16510489F718C0B3E04B2E10
:102D7000512CD801BC92F601B082D701BC920E94BE
:102D8000E01AB1E04B1A5108A1F708C0F801B0826F
:102D9000D6011C92F70110820E94E01A0D5F1F4FAE
:102DA000F3E0CF0ED11C83E0E80EF11C91E00A3F66
:102DB000190709F0A7CF31C120E005E018E04091E4
:102DC0000F0150911001409FC001419F900D509FF5
:102DD000900D1124875E994C9093100180930F0100
:102DE00029832A832B83A0E0B0E0FEE0B695A79567
:102DF00097958795FA95D1F7BC01660F771F860FD7
:102E0000971FBC0162517E4FCE01019629870E9417
:102E1000C3130E94E01A29852C5F243F81F610928B
:102E2000F4011092F5011092F6010E94E01A10923E
:102E3000EE011092EF011092F0010E94E01A109240
:102E4000F1011092F2011092F3010E94E01A109227
:102E5000F7011092F8011092F9010E94E01A0E9405
:102E6000FD1B0E94E01AD9C0F12C05E018E020916A
:102E70000F0130911001209FC001219F900D309FC4
:102E8000900D1124875E994C9093100180930F014F
:102E9000F982FA82FB82A0E0B0E05EE0B695A795E9
:102EA000979587955A95D1F7BC01660F771F860FC6
:102EB000971FBC0162517E4FCE0101960E94C31341
:102EC0000E94E01AF394F394A4EFFA12D0CF00E03A
:102ED00010E0FF24FA94F801E251FE4F10821182B3
:102EE000F2820E94E01A0D5F1F4F0C30110599F716
:102EF00000E010E0F801E251FE4F108211821282D0
:102F00000E94E01A0D5F1F4F0C30110599F700E089
:102F100010E0FF24FA94F801E251FE4F1082118272
:102F2000F2820E94E01A0D5F1F4F0C30110599F7D5
:102F300076CF0E9408236B017C010E9408232B019D
:102F40003C010E940823A50194010E942724698363
:102F5000C301B201A50194010E9427246A83C7011D
:102F6000B601A50194010E9427246B830E940823C7
:102F700024E030E040E050E00E9427249B01220F33
:102F8000331F620F731F62517E4FCE0101960E9464
:102F9000C3130E94E01A0150110959F634E0C32E00
:102FA000D12C00E010E0702E770C2EEEE22E21E006
:102FB000F22E79827A827B82B701CE0101960E943D
:102FC000C3130E94E01AB3E0EB0EF11CEAEFEE1619
:102FD000E1E0FE0671F70F5F1F4F0038110519F78A
:102FE000F1E0CF1AD108E9F681E0281A310809F496
:102FF00036CF08EE13E09DCF00E010E0FF24FA94F6
:10300000F801E251FE4FF082118212820E94E01A12
:103010000D5F1F4F0C30110599F729960FB6F894E4
:10302000DEBF0FBECDBFDF91CF911F910F91FF90FB
:10303000EF90DF90CF90BF90AF909F908F907F9058
:103040006F905F904F903F902F900895EBEEF1E0DE
:10305000AAEFB1E08C91808311968C9111978183B6
:1030600012968C9182830E9489150C949E15CF93A1
:103070000E945F1A882381F080EC91E00E94201A60
:10308000C8E083EC91E00E94201AC150D1F78BE890
:1030900091E0CF910C94261ACF910895CF930E947E
:1030A0005F1A882371F080EC91E00E94201AC1E33E
:1030B0008BE891E00E94201AC150D1F7CF910C9477
:1030C000221ACF9108950E945F1A8823C1F00E94AE
:1030D000751C64EF71E080E090E00E94E41180E8EC
:1030E00091E00E94201A85E891E00E94201A86EA69
:1030F00093E10E94321A8EE293E10C94531A0895E0
:10310000CF93DF9380E090E00E948D14882301F13B
:103110008091FA01811118C0D091FB01D630A1F441
:10312000C091FC01C73081F41092EA0160E080E0B8
:1031300090E00E948B141092EB01D093EC01C093AD
:10314000ED010E948915CDC081E08093EA01C9C0DC
:103150008091EA01823009F483C028F48111C1C052
:103160000E949E15B4C0833031F0843009F0B9C09C
:103170000E949E15B0C00E949E15A091FA01B0E079
:103180004091EB0150E0CA0101968A179B070CF4AD
:10319000A0C00297A817B9070CF49BC0E091FB01EF
:1031A000F0E0C091EC01D0E0CE0101968E179F07B0
:1031B0000CF48FC00297E817F9070CF48AC09091BD
:1031C000FC01292F30E06091ED0170E0CB01019608
:1031D000821793070CF47DC00297281739070CF467
:1031E00078C083E0AA0FBB1F8A95E1F72A0F3B1F27
:1031F00093E0220F331F9A95E1F7E20FF31FEF5789
:10320000FD4FE4918E2F90E0FC013197E830F105FD
:1032100008F05FC0E859FF4F0C94F32187E090E07D
:103220000E948D14882359F082E08093EA010E9465
:10323000261860E087E090E00E948B144CC081E08B
:103240008093EA018AEC91E0DF91CF910C94261AE9
:1032500061E087E090E00E948B1482E08093EA01B5
:103260000E94261838C0FA0123E0EE0FFF1F2A95AE
:10327000E1F7E60FF71F33E0EE0FFF1F3A95E1F796
:10328000EC0FFD1FEF57FD4FE491E43001F50E9474
:1032900026180E949E156091FA0182E090E00E943B
:1032A0008B1484E019C0FA0183E0EE0FFF1F8A95AA
:1032B000E1F7E60FF71F93E0EE0FFF1F9A95E1F796
:1032C000EC0FFD1FEF57FD4FE491E33001F382E077
:1032D00003C081E001C083E08093EA01DF91CF91D8
:1032E0000895DF91CF910C949E15DF92EF92FF929B
:1032F0000F931F93CF93DF93C6E5D1E0AAEFB1E020
:1033000051E062E073E014E005E036E0F32E47E0C0
:10331000E42EE3E0DE2EDA0EE991E23108F0E2512C
:10332000F0E0EE5DFC4EE491F0917B00E3FB2227A0
:1033300020F930E0C90125E0880F991F2A95E1F7AF
:103340009F2F9F7D892B80937B00E770E064E09343
:103350007C0080917A00806480937A0080917A006A
:1033600086FDFCCF80917800E091790090E09E2B63
:103370008233910514F4EC9234C0FC01F297EE30E4
:10338000F14010F4FC922DC0FC01E054F140E83112
:10339000F14010F40C9325C0FC01E855F240EE36E4
:1033A000F10510F41C931DC0FC01E65CF240E4360C
:1033B000F10510F47C9315C0FC01EA52F340E436A9
:1033C000F10510F46C930DC0FC01EE58F340EF359D
:1033D000F10510F45C9305C08D5E9340429708F4AC
:1033E0001C921196DA1298CFDF91CF911F910F9115
:1033F000FF90EF90DF90089520E0DC0160FF03C0B4
:1034000001C02D932D936250E0F77040D0F70895DE
:10341000BC01009791F0FC0101900020E9F7319781
:10342000AF01481B590BE0912902F0912A0202805A
:10343000F381E02D89E292E0099480E090E0089524
:103440000C94081A83ED91E00C94081ACF93DF9343
:103450000E94081AEC010E94221A8C0F9D1FDF9116
:10346000CF9108950F931F93CF93DF938C01C0E00A
:10347000D0E0F801EC0FFD1F6491662371F0E0913C
:103480002902F0912A020190F081E02D89E292E078
:103490000995892B11F02196ECCFCE01DF91CF91C8
:1034A0001F910F910895CF93DF930E94321AEC0180
:1034B0000E94221A8C0F9D1FDF91CF910895CF9308
:1034C000C09118016AE070E080E090E00E94E41191
:1034D00081E0C11101C080E0CF9108958F929F9249
:1034E000AF92BF920F931F93CF93DF93CDB7DEB709
:1034F000A1970FB6F894DEBF0FBECDBF19A2423020
:1035000008F44AE08E010F5D1F4F842E912CA12CF0
:10351000B12CA50194010E945924E62FB901CA01DA
:1035200001501109EA3014F4E05D01C0E95CD801F2
:10353000EC93232B242B252B61F7C8010E94081A3A
:10354000A1960FB6F894DEBF0FBECDBFDF91CF912D
:103550001F910F91BF90AF909F908F900895CF9241
:10356000DF92EF92FF92CF93DF936B017C01E091AA
:103570002902F0912A020190F081E02D6DE289E2AA
:1035800092E00995EC0166277727CB016C197D093C
:103590008E099F094AE00E946E1A8C0F9D1FDF91D1
:1035A000CF91FF90EF90DF90CF900895BC01990FDD
:1035B000880B990B97FD0C94AF1A4AE00C946E1A85
:1035C0003F924F925F926F927F928F929F92AF92B3
:1035D000BF92CF92DF92EF92FF920F931F93CF9300
:1035E000DF9300D01F92CDB7DEB7F09079028091C3
:1035F0007C0290917D02A0917E02B0917F02892B86
:103600008A2B8B2BE9F00E94BF110091A902109127
:10361000AA022091AB023091AC02DC01CB01801BED
:10362000910BA20BB30B00917C0210917D022091B3
:103630007E0230917F0280179107A207B307B8F28C
:103640000E94BF116093A9027093AA028093AB02FB
:103650009093AC02E0918402F0918502309759F08A
:1036600040918002509181026091820270918302A8
:103670008F2D0995F82E00912702109128024F2CCA
:10368000512C612C712C0115110509F461C0D80170
:103690001C96EC901C9780917A0290917B02843664
:1036A000910510F41C961C92D801ED91FC91A2801A
:1036B000B38019821A821B82F11014C0F80145856B
:1036C0005685628173819E012F5F3F4FC801F501CE
:1036D0000995D8011C96EC921C9714960D911C919B
:1036E0001597D1CFF8013996CE0101966C014801AA
:1036F0009CE0890E911CDF0113973C9021913320AF
:1037000001F12223F1F0822F90E0A0E0B0E09C01D3
:10371000AD012F5F3F4F4F4F5F4FC301B2010E947A
:10372000CF219B01AC01832D90E0A0E0B0E0BC0173
:10373000CD016F5F7F4F8F4F9F4F0E94CF21D601EA
:103740008C93BFEFCB1ADB0AE815F905A1F6B6CFCB
:103750008091A7029091A8028C010F5F1F4F1093D8
:10376000A8020093A70249979CF10E94AA124B015C
:103770005C0188EE93E0089FB001099F700D189FCF
:10378000700D1124072E000C880B990BC090A3021A
:10379000D090A402E090A502F090A602A5019401A9
:1037A0002C193D094E095F090E94592430937B0270
:1037B00020937A021092A8021092A7020E94AA12E5
:1037C0006093A3027093A4028093A5029093A60233
:1037D0000F900F900F90DF91CF911F910F91FF905D
:1037E000EF90DF90CF90BF90AF909F908F907F90A1
:1037F0006F905F904F903F900895CF93DF93C0916B
:103800002702D0912802209789F08A819B81009716
:1038100049F06D857E859B01220F331F620F731F58
:103820000E94FC190C80DD81C02DEDCFDF91CF917E
:103830000895CF92DF92EF92FF921092920223B7F7
:10384000216023BF29E040E150E061157105810549
:10385000910509F440C06A01022E02C0CC0CDD1CA7
:103860000A94E2F70D2C000CEE08FF086C157D059C
:103870008E059F0520F4222311F02150ECCF23FD6B
:1038800002C0E0E001C0E0E2322F37703E2B30642E
:10389000F894A895E4B7E77FE4BFE0916000E861A1
:1038A000E09360003093600078941092920230911F
:1038B0002602E0919202E11104C0311102C0889504
:1038C000F8CF6C197D098E099F0997FFBECF60E084
:1038D00070E0CB01BACF83B78E7F83BF80E090E0EA
:1038E000FF90EF90DF90CF90089583E08093E90000
:1038F0008091F200882319F08AE38093E80008950C
:10390000FC0180912502811103C08FEF9FEF089584
:103910009FB7F89482E08093E9002091F20030E0B4
:103920001216130614F421E030E02115310559F088
:10393000289884E6809324028091F100808380910E
:10394000F200882319F09FBFC90108958BE6809388
:10395000E800F9CFCF93DF93E0912902F0912A029A
:103960000190F081E02D682F89E292E00995EC0149
:103970000E94221A8C0F9D1FDF91CF910895809194
:103980009B0281110DC082E08093970284E08093B6
:10399000980210929A021092990281E080939B0201
:1039A00087E992E00895789484B5826084BD84B5F7
:1039B000816084BD85B5826085BD85B5816085BD2A
:1039C00080916E00816080936E00109281008091E2
:1039D000810082608093810080918100816080936A
:1039E00081008091800081608093800080919100AF
:1039F000826080939100809191008160809391001A
:103A0000809190008160809390008091C1008460DB
:103A10008093C1008091C10082608093C100809139
:103A2000C10081608093C1008091C3008160809358
:103A3000C3008091C00082608093C0008091C2006A
:103A400081608093C20080917A00846080937A00C4
:103A500080917A00826080937A0080917A00816000
:103A600080937A0080917A00806880937A00109227
:103A700025021092E9011092E8018091D70081603F
:103A80008093D70080EA8093D80089B5806189BD92
:103A900089B5826089BD09B400FEFDCF61E070E0A8
:103AA00080E090E00E94E4118091D8008F7C8061DA
:103AB0008093D8008091E000807F8093E000809127
:103AC000E1008E7E8093E1008DE08093E200559AC4
:103AD000209AEEEFFFE7859194918B3F9C4D19F46E
:103AE00081E08093E701EDEAF1E02491EEE8F1E076
:103AF0008491882399F090E0880F991FFC01EB587E
:103B0000FE4FA591B491FC01E959FE4F8591949126
:103B10008FB7F894EC91E22BEC938FBF8091100259
:103B2000811145C010920202109201028FEF809322
:103B30000502809306028093070280930802809317
:103B4000090280930A0281E080930B0210920D0219
:103B500010920C021092040210920302809127022C
:103B600090912802892B31F48FEF91E090932802F5
:103B700080932702E091FD01F091FE01309721F042
:103B80008FEF91E0958384838FEF91E09093FE0116
:103B90008093FD0110920F0210920E0288E391E0D3
:103BA000909300028093FF0181E080931002E091E6
:103BB000FF01F09100020480F581E02D8FEF91E08C
:103BC00009958EEE91E0909302028093010284E0C9
:103BD00090E090930D0280930C02E091FF01F09130
:103BE00000020284F385E02D8FEF91E009950097A4
:103BF00029F19C0140E050E060E472E48FE090E045
:103C00000E942724722F632F00917C0210917D0265
:103C100020917E0230917F02872F962FDA01801744
:103C20009107A207B30710F4D901C80180937C0261
:103C300090937D02A0937E02B0937F0288E08093F0
:103C400079021092260288EE93E0A0E0B0E0809323
:103C5000180290931902A0931A02B0931B0281E0FC
:103C600090E00E948D148093EB0183E090E00E942D
:103C70008D148093EC0184E090E00E948D14809379
:103C8000ED010E94751986E090E00E948D1481116B
:103C900002C01092EA0181E080930E0184EF91E06E
:103CA000A0E0B0E080932D0290932E02A0932F020B
:103CB000B09330028FEF9FEF9093360280933502DE
:103CC00060E0262E60E0362E04E010E0C1E00E94A5
:103CD0005F1A882309F4FDC136E4309379020E940B
:103CE00075190E9480180E945F1A882309F415C371
:103CF0000E94751C80910E01823061F1833009F4BD
:103D00002BC1813009F07DC10E9463180E945F1AA7
:103D1000882351F064EF71E080E090E00E94E411AC
:103D200082EB92E10E94531A0E945F1A882321F0CD
:103D30008DE691E00E94201A89E292E00E94F10E45
:103D4000892BD1F389E292E00E94400FD82F0E9484
:103D5000AA1C5AC180E891E00E94201A85E891E0EF
:103D60000E94201A81E892E10E94531A812C912C22
:103D7000540183940E944E180E94371882E090E00C
:103D80000E948D14D82E740181E0E81AF1080E9477
:103D90005F1A811119C088EC91E00E94201A4AE054
:103DA000C501B4010E946E1A0E94221A0E9437189F
:103DB0002FEF821A920AA20AB20A39E083169104FE
:103DC000A104B104B9F643C089E891E00E94201A29
:103DD00088E0D89EE00CF11C1124C70143E0880F55
:103DE000991F4A95E1F79C012F573D4F7901C12C4E
:103DF000D12C87EC91E00E94201AF701EC0DFD1DFB
:103E0000E4918E2F90E089309105A8F4FC01EA5AE4
:103E1000FF4F0C94F32185E090E00E948D148823DD
:103E200019F08BE891E005C088EC91E002C08DE8C4
:103E300091E00E94201A8FE891E00E94201A3FEF43
:103E4000C31AD30A88E0C816D10499F6A4CF0E94F9
:103E50004E180E945F1A882309F454C083E991E048
:103E60000E94201A87E792E00E94321A81E090E0D7
:103E70000E948D1490E001960E94D61A8AE692E084
:103E80000E94321A82E090E00E948D14882319F07B
:103E900090E0019602C080E090E00E94D61A8CE586
:103EA00092E00E94321A83E090E00E948D14E82F85
:103EB000F0E0EE0FFF1FEA5BFE4F808191810E94D0
:103EC000201A88EC91E00E94201A84E090E00E9481
:103ED0008D1490E001960E94D61A86E592E00E9429
:103EE000321A85E090E00E948D14811103C086ECA7
:103EF00091E002C089E691E00E94201A84E392E0FA
:103F00000E94531A8BE991E00E94201A84E090E00D
:103F10000E948D1490E00196880F991F880F991FB9
:103F20000E94D61A8EE991E00E94201A83E090E068
:103F30000E948D1426E0829FC001112444960E94A5
:103F4000D61A86EA91E00E94201A89E292E00E9445
:103F5000F10E892BD1F34FC00E945F1A882309F418
:103F600044C080EA91E00E94201A81EC91E00E9416
:103F7000201AD8E38BE891E00E94201AD150D1F7A3
:103F80000E94221A8AE891E00E94201AD6E388EC67
:103F900091E00E94201AD150D1F78BE891E00E9465
:103FA000261A8AEF91E00E94531A81EC91E00E9458
:103FB000531A8AE891E00E94201AD6E388EC91E037
:103FC0000E94201AD150D1F78BE891E00E94261A66
:103FD00081EC91E00E94201AD8E38BE891E00E94E6
:103FE000201AD150D1F70E94221A89E292E00E9451
:103FF000F10E892BD1F389E292E00E94400FD82F75
:1040000003C00E946318D0E08D2F0E94AA1CD135F6
:1040100039F1BCF4D83409F43FC074F4DB3129F130
:10402000DF3309F04BC00E94751C88EA91E00E94C2
:10403000201A8CEF92E14AC0DB3491F1DD34F1F0CB
:104040003DC0DB3669F12CF4D23569F1D83621F167
:1040500035C0D13729F0D23731F1DD3679F50EC0D0
:10406000C0930E0180E891E014C00E94751C88EA9C
:1040700091E00E94201A8DE093E128C032E0309355
:104080000E010E94751C80E891E00E94201A85E8CC
:1040900091E00E94201A41C183E080930E013DC14E
:1040A000C0930E013AC1F0900E0192E0C92EFC10AF
:1040B00034C10E947519F0920E012FC10E94751C27
:1040C00088EA91E00E94201A8CEE92E10E94531A35
:1040D00024C10E9475198AE090E00E948D146091BD
:1040E000FA018617B1F08AE090E00E948B14C09329
:1040F00026028091200290912102A0912202B0918B
:10410000230280931C0290931D02A0931E02B09381
:104110001F028BE090E00E948D146091FB018617D6
:10412000B1F08BE090E00E948B14C0932602809146
:10413000200290912102A0912202B091230280934B
:104140001C0290931D02A0931E02B0931F028CE0EC
:1041500090E00E948D146091FC018617B1F08CE014
:1041600090E00E948B14C0932602809120029091CF
:104170002102A0912202B091230280931C0290930D
:104180001D02A0931E02B0931F0280912602882375
:1041900091F088E0D82ED09279020E94AA12609302
:1041A00020027093210280932202909323020E94A6
:1041B00075190E9480188091200290912102A0918F
:1041C0002202B091230240911C0250911D02609185
:1041D0001E0270911F026C017D01C41AD50AE60A05
:1041E000F70A21E3C21625E7D206E104F10474F0D0
:1041F00080931C0290931D02A0931E02B0931F0295
:10420000109226020E94FD1B0E94E01A1093890260
:1042100000938802C0901802D0901902E0901A0210
:10422000F0901B0280917A008F7780937A008091C2
:10423000930290919402019660919502709196027A
:104240000E94DF219093940280939302019761F57D
:1042500083B7817F83BF0E94AA122B013C01C70153
:10426000B6010E94191C0E94AA124B015C01C701F1
:10427000B6010E9416236B017C01C501B4016419CB
:104280007509860997090E9418239B01AC01C70193
:10429000B6010E94142260938E0270938F02809365
:1042A00090029093910234C083B7817F90918802ED
:1042B000892B83BFC701B6010E94162320918E026D
:1042C00030918F0240919002509191020E945323AD
:1042D0000E9486220E94191C40918A0250918B02F2
:1042E00060918C0270918D02C40ED51EE61EF71EE1
:1042F000092E000CAA0BBB0BC81AD90AEA0AFB0A42
:10430000C0928A02D0928B02E0928C02F0928D02CF
:1043100080917A00806880937A002114310409F436
:10432000D6CC0E940000D3CCE9E2F2E013821282E4
:1043300088EE93E0A0E0B0E084839583A683B78302
:104340008DE591E0918380838FEF9FEF9587848740
:10435000E9E7F2E0808312821182148613868FEFE0
:104360009FEFDC0187839087A187B287E8E8F2E0BE
:10437000F0938702E09386021282138214821582E0
:1043800080E090E0A0E8BFE386839783A087B187B1
:104390001486138684E690E0968785870895DB016E
:1043A0008F939F930E944624BF91AF91A29F800D4F
:1043B000911DA39F900DB29F900D1124089597FB1E
:1043C000072E16F4009407D077FD09D00E94002232
:1043D00007FC05D03EF4909581959F4F0895709508
:1043E00061957F4F0895EE0FFF1F0590F491E02D2A
:1043F00009940E947B24B7FF0895821B930B0895B4
:10440000AA1BBB1B51E107C0AA1FBB1FA617B707FA
:1044100010F0A61BB70B881F991F5A95A9F7809516
:104420009095BC01CD0108950E9428220C94D723B9
:104430000E94D02358F00E94C92340F029F45F3F26
:1044400029F00C94C02351110C940B240C94C62316
:104450000E94E82368F39923B1F3552391F3951B48
:10446000550BBB27AA2762177307840738F09F5F95
:104470005F4F220F331F441FAA1FA9F335D00E2E02
:104480003AF0E0E832D091505040E695001CCAF76F
:104490002BD0FE2F29D0660F771F881FBB1F261732
:1044A00037074807AB07B0E809F0BB0B802DBF0109
:1044B000FF2793585F4F3AF09E3F510578F00C94D8
:1044C000C0230C940B245F3FE4F3983ED4F386950D
:1044D00077956795B795F7959F5FC9F7880F911DF9
:1044E0009695879597F90895E1E0660F771F881FE5
:1044F000BB1F621773078407BA0720F0621B730B98
:10450000840BBA0BEE1F88F7E09508950E94F02304
:1045100088F09F5798F0B92F9927B751B0F0E1F084
:10452000660F771F881F991F1AF0BA95C9F714C034
:10453000B13091F00E940A24B1E008950C940A244D
:10454000672F782F8827B85F39F0B93FCCF386956D
:1045500077956795B395D9F73EF4909580957095CA
:1045600061957F4F8F4F9F4F089581E090E0F894C1
:104570000C948A248F929F92AF92BF92CF92DF9237
:10458000EF92FF92CF93DF93EC01688179818A816A
:104590009B81611571058105910521F464E279ED36
:1045A0008BE597E02DE133EF41E050E00E942724B6
:1045B00049015A019B01AC01A7EAB1E40E944624DB
:1045C0006B017C01ACEEB4EFA50194010E94542470
:1045D000DC01CB018C0D9D1DAE1DBF1DB7FF03C0BF
:1045E0000197A109B04888839983AA83BB83BC0142
:1045F000CD019F77DF91CF91FF90EF90DF90CF902B
:10460000BF90AF909F908F9008950E94BA22089516
:1046100089E191E00E94BA22089560931901709394
:104620001A0180931B0190931C010895E89409C01E
:1046300097FB3EF490958095709561957F4F8F4FD5
:104640009F4F9923A9F0F92F96E9BB279395F695EB
:10465000879577956795B795F111F8CFFAF4BB0F69
:1046600011F460FF1BC06F5F7F4F8F4F9F4F16C0CD
:10467000882311F096E911C0772321F09EE8872F57
:10468000762F05C0662371F096E8862F70E060E013
:104690002AF09A95660F771F881FDAF7880F96958C
:1046A000879597F908950E9466230C94D7230E945A
:1046B000C92338F00E94D02320F0952311F00C94E8
:1046C000C0230C94C62311240C940B240E94E823CD
:1046D00070F3959FC1F3950F50E0551F629FF00155
:1046E000729FBB27F00DB11D639FAA27F00DB11D6E
:1046F000AA1F649F6627B00DA11D661F829F2227F7
:10470000B00DA11D621F739FB00DA11D621F839F7D
:10471000A00D611D221F749F3327A00D611D231F53
:10472000849F600D211D822F762F6A2F11249F57A1
:1047300050409AF0F1F088234AF0EE0FFF1FBB1FA4
:10474000661F771F881F91505040A9F79E3F510563
:1047500080F00C94C0230C940B245F3FE4F3983E4C
:10476000D4F3869577956795B795F795E7959F5F0D
:10477000C1F7FE2B880F911D9695879597F908959F
:1047800097F99F6780E870E060E008959FEF80EC04
:10479000089500240A9416161706180609060895A7
:1047A00000240A9412161306140605060895092E0D
:1047B0000394000C11F4882352F0BB0F40F4BF2B7C
:1047C00011F460FF04C06F5F7F4F8F4F9F4F0895BC
:1047D00057FD9058440F551F59F05F3F71F04795B2
:1047E000880F97FB991F61F09F3F79F08795089597
:1047F000121613061406551FF2CF4695F1DF08C0B6
:10480000161617061806991FF1CF869571056105D2
:1048100008940895E894BB2766277727CB0197F97A
:104820000895F999FECF92BD81BDF89A992780B578
:104830000895262FF999FECF1FBA92BD81BD20BDE4
:104840000FB6F894FA9AF99A0FBE01960895052EBC
:1048500097FB1EF400940E943E2457FD07D00E944F
:10486000592407FC03D04EF40C943E2450954095F7
:10487000309521953F4F4F4F5F4F0895909580950C
:10488000709561957F4F8F4F9F4F08950E947B24B5
:10489000A59F900DB49F900DA49F800D911D112494
:1048A0000895B7FF0C9446240E944624821B930B64
:1048B0000895A1E21A2EAA1BBB1BFD010DC0AA1F61
:1048C000BB1FEE1FFF1FA217B307E407F50720F079
:1048D000A21BB30BE40BF50B661F771F881F991FF4
:1048E0001A9469F760957095809590959B01AC013D
:1048F000BD01CF010895A29FB001B39FC001A39F46
:10490000700D811D1124911DB29F700D811D112408
:08491000911D0895F894FFCFFA
:104918000B0F0B0F0B0F0B0F0B0FFFFFFFFF0139D7
:104928000500E10000000000000100000000C18057
:104938008100000000000000DC14DC14DC146515A4
:1049480061155E15000000008A0DCD0D3D0B651543
:1049580061153A0B3F0BB001B201B401B601B801C1
:10496800BA01BC01BE0114131200000000DB0E1EC8
:1049780012F10E400F5E0F3E0F4B455900456E7405
:104988006572204D656E752043686F6963653A00EE
:104998001B5B324A001B5B4800090923005E0020AC
:1049A8002023001B5B33363B3048001B5B003B0079
:1049B8001B5B34303B3048001B5B35353B304800CF
:1049C80041004200430044004500460058005A0098
:1049D8000909002320202020200050726F626C6596
:0649E8006D36000D0A000F
:00000001FF
